:10000000CDC00000E9C00000E7C00000E5C000006E
:10001000E3C00000E1C00000DFC00000DDC0000060
:10002000DBC00000D9C0000077C70000D5C00000C9
:10003000D3C00000D1C00000CFC00000CDC0000080
:10004000CBC00000C9C00000C7C00000C5C0000090
:10005000C3C00000C1C00000BFC00000BDC00000A0
:10006000BBC00000B9C00000B7C00000B5C00000B0
:10007000B3C00000B1C00000AFC00000ADC00000C0
:10008000ABC00000A9C00000A7C00000A5C00000D0
:10009000A3C00000A1C000001B5B33316D44657636
:1000A00020456E756D204572726F720D0A202D2DE0
:1000B000204572726F7220436F64652025640D0ABB
:1000C000202D2D20537562204572726F7220436F70
:1000D00064652025640D0A202D2D20496E2053745F
:1000E0006174652025640D0A1B5B33376D001B5B53
:1000F00033316D486F7374204D6F646520457272A3
:100100006F720D0A202D2D204572726F7220436F81
:1001100064652025640D0A1B5B33376D000D0A44AE
:10012000657669636520556E6174746163686564A2
:100130002E0D0A004465766963652041747461631D
:100140006865642E0D0A004D494449204E6F746560
:10015000202573202D204368616E6E656C20256418
:100160002C2050697463682025642C2056656C6FC0
:1001700063697479202564001B5B33366D4D4944F7
:100180004920486F73742044656D6F2072756E6EE0
:10019000696E672E0D0A1B5B33376D0011241FBE7D
:1001A000CFEFD0E2DEBFCDBF11E0A0E0B1E0E2EBE7
:1001B000F9E100E00BBF02C007900D92A23DB1072C
:1001C000D9F711E0A2EDB1E001C01D92A63EB10742
:1001D000E1F70ED10C94D70C13CF8BB18F708066E2
:1001E0008BB908959091DF012DB73EB7285030406C
:1001F0000FB6F8943EBF0FBE2DBFEDB7FEB73196D8
:1002000028E930E0ADB7BEB712963C932E93119714
:100210008283138264831582968317820E94AF09BA
:100220008BB18F7080698BB92DB73EB7285F3F4F78
:100230000FB6F8943EBF0FBE2DBF0895DF93CF9346
:100240000F92CDB7DEB78983D7D400D000D0EDB7F9
:10025000FEB731962EEE30E0ADB7BEB712963C93A6
:100260002E9311978981828313820E94AF098BB1EB
:100270008F7080698BB90F900F900F900F90FFCF08
:100280008DE191E00E94090A8BB18F7080618BB97A
:10029000089584E391E00E94090A8BB18F70806A0F
:1002A0008BB908951F93DF93CF9300D000D0CDB7C3
:1002B000DEB713B18CB1809590E080739070959506
:1002C00087951095107E182B9091D20191278CB1B3
:1002D0008095847011F430E001C039E0292F96FD3B
:1002E00002C080E005C016FD02C080E801C080E9C0
:1002F00097FD02C09CE307C017FD03C09DE380E8A3
:1003000002C09DE380E923FF07C013FD03C09EE305
:1003100080E802C09EE380E924FF07C014FD03C00B
:100320009FE380E802C09FE380E925FF04C015FF3A
:100330001DC080E91CC0882379F0282F22952F70DA
:100340002983832B8A839B8380E48C8381EA91E0D9
:10035000BE016F5F7F4F39D71093D2010F900F907E
:100360000F900F90CF91DF911F91089580E89BE34C
:10037000E4CF84B7877F84BF88E10FB6F894809379
:100380006000109260000FBE20E030E090E80FB6F1
:10039000F89490936100209361000FBE1092C80002
:1003A0008093C90086E08093CA00539A5A9A83E3E7
:1003B00090E09093CD008093CC008AEA91E09093F6
:1003C000E3018093E2018AB1806F8AB98BB18F70AB
:1003D0008BB96A98729A84B18F7184B98DB18F7C10
:1003E0008DB985B1806E85B98EB180638EB916C422
:1003F0009F92AF92BF92CF92DF92EF92FF920F93B4
:100400001F93DF93CF93CDB7DEB7C650D2400FB660
:10041000F894DEBF0FBECDBFACDF88E791E0F9D71F
:100420008BB18F7080618BB98E01095F1F4F7E0188
:100430000894E11CF11C5CE0952E43E0C42ED12C05
:10044000CC0EDD1E37E4A32E31E0B32E8091DF0108
:100450008B3021F08C3009F06FC02EC08BB18F70C3
:10046000806A8BB981E0B701A80120E032E023D691
:10047000882319F080E091E00AC069817A8181EADD
:1004800091E0A801C3D6882351F08CE291E086D791
:100490008BB18F7080698BB91092DF014DC081E004
:1004A000D7D0882319F08CE591E0F1CF81E891E075
:1004B00075D79092DF0140C0F5DE81EA91E0B60188
:1004C00060D68823C9F18B818F7090E089309105C7
:1004D00019F48AE991E005C08830910569F58DE944
:1004E00091E02DB73EB72A5030400FB6F8943EBF8A
:1004F0000FBE2DBFEDB7FEB73196ADB7BEB71296A2
:10050000BC92AE921197938382838C8190E08F701E
:1005100090700196958384838D81868317828E8166
:10052000808711861CD72DB73EB7265F3F4F0FB689
:10053000F8943EBF0FBE2DBF81EA91E021D671D560
:1005400085CF9091C80095FFFCCF8093CE0080E0CE
:1005500090E008958091C80087FFFCCF8091CE0085
:1005600090E0089520919E0090919E00916090935C
:100570009E0026C090919F0095FF06C090919F001D
:100580009F7D90939F0081509091DF01923011F4F4
:1005900081E018C09091A60094FF07C08091A6004A
:1005A0008F7E8093A60082E00DC09091A60091FFFF
:1005B00007C08091A6008D7F8093A60083E002C0D3
:1005C0008823C1F620FD05C090919E009E7F9093E8
:1005D0009E00089590919E008091A0008D7F809351
:1005E000A00080919E00826080939E0080919E007A
:1005F00081FDFCCF80919E00816080939E00809160
:100600009F008F7D80939F008AE020ED37E040912E
:100610009F0045FF0BC080919F008F7D80939F00BE
:1006200080919F008D7F80939F0005C0F9013197D5
:10063000F1F7815061F790FD05C080919E008E7F9B
:1006400080939E008091A00082608093A000089516
:100650001092D70199E09093D8018093D90110921C
:10066000DA011092DC011092DB011092DE0110928F
:10067000DD011092A70080E090E068C1EF920F9337
:100680001F93DF93CF93CDB7DEB728970FB6F894BB
:10069000DEBF0FBECDBF8091DF01863009F497C069
:1006A000873070F48330C9F1843020F4813009F050
:1006B00018C113C08430C9F1853009F012C15EC081
:1006C000883009F49EC0883008F48DC0893009F460
:1006D000B7C08A3009F005C1EBC00091D401109178
:1006E000D5010115110509F4FCC081E03BDF682F3D
:1006F000882331F08091D3018093DF0181E0EDC048
:10070000015010401093D5010093D401011511053B
:1007100009F0E7C08091D301D0C08CED95E09093B3
:10072000D5018093D40184E0C8C080ED97E00197A3
:10073000F1F78091D4019091D5019C012150304076
:100740003093D5012093D401009709F0CAC077985F
:100750008091D80080618093D8008091DD008B7FEC
:100760008093DD008091D70080618093D7008091D5
:10077000DD0082608093DD0085E09FC080919F0056
:1007800080FFAFC080919F008E7F80939F008091FB
:100790009F008D7F80939F008091DF008D7F8093ED
:1007A000DF008091DE0082608093DE0080919E00F9
:1007B000816080939E0087D281E08093DF0184E690
:1007C00090E09093D5018093D40186E06EC002DF63
:1007D00081E08093DF0188EC90E09093D5018093D5
:1007E000D40187E062C080E060E040E020E000E407
:1007F00010E0EE2426D28091AC0087FF6CC088E028
:100800005CC0A7EDB1E0E8ECF1E088E001900D926A
:100810008150E1F7CE01019699D0682F882309F025
:1008200058C088858093D001D5DE81E08093DF01B8
:1008300088EC90E09093D5018093D40189E035C095
:100840008091A9008E7F8093A9008091AB008D7F5D
:100850008093AB0081E08093A8001092A8000091E3
:10086000D00180E060E040E020E010E0EE24E9D13B
:100870008091AC0087FF2FC0A7EDB1E0E0ECF1E084
:1008800088E001900D928150E1F780E090E05ED029
:10089000682F8823F1F481E08093DF0184E690E003
:1008A0009093D5018093D4018AE08093D30119C03D
:1008B00081E08093A10091DC8BE08093DF0111C087
:1008C00091DC8091DD0081608093DD00D9DC49D12D
:1008D00008C083E002C060E084E09091DF019230C4
:1008E00079F728960FB6F894DEBF0FBECDBFCF9133
:1008F000DF911F910F91EF9008951F93CF93DF9396
:10090000182FC8EED3E009C081E02CDE8823D1F493
:10091000209711F484E016C02197112329F48091C7
:10092000A60083FFF1CF0DC0113029F48091A600FD
:1009300080FFEACF06C0123039F78091A60082FF0F
:10094000E3CF80E0DF91CF911F910895FF920F9345
:100950001F93CF93DF93182F092FF0909E00C09123
:10096000DD01D091DE0180919E00816080939E0028
:1009700081E0F8DD882309F0DDC08091AA008F7C3A
:100980008093AA001092F5008091A9008F7B80933C
:10099000A900E7EDF1E081918093AF0081E0EF3DA8
:1009A000F807C9F78091A600982F977F9093A6002B
:1009B0008F778093A60080E0A0DF882309F0BAC07B
:1009C0008091A90080648093A90081E0CBDD882319
:1009D00009F0B0C0C801092F182F8091D70187FFF7
:1009E00057C08091AA008F7C80618093AA00011576
:1009F000110581F531C08091A9008F7B8093A900FA
:100A000081E07BDF882309F095C08091F60090910A
:100A1000F700009749F4C0E0D0E006C08091AF0035
:100A2000F80181938F0121978091F6009091F70052
:100A3000009711F0209791F78091A900806480932E
:100A4000A9008091A600982F9E7F9093A6008F7793
:100A50008093A600209779F68091AA008F7C80620F
:100A60008093AA008091A9008F7B8093A90082E0E7
:100A700044DF882309F05EC08091A600982F9B7FF9
:100A80009093A6008F778093A60082E036DF52C055
:100A900001151105B9F18091AA008F7C80628093C5
:100AA000AA008091A9008F7B8093A90020C082E0DA
:100AB00024DF882309F03EC08091D00190E007C078
:100AC000F80121918F012093AF00219739F02091F7
:100AD000F6003091F7002817390790F38091A600AF
:100AE000982F9B7F9093A6008F778093A6002097E6
:100AF000F1F682E002DF8823E9F48091A9008064A6
:100B00008093A9008091AA008F7C80618093AA00C5
:100B10008091A9008F7B8093A90081E0EEDE88237D
:100B200049F49091A600292F2E7F2093A6009F774D
:100B30009093A6009091A90090649093A900F0FC76
:100B400005C090919E009E7F90939E0091E09093AF
:100B5000A8001092A800DF91CF911F910F91FF90F4
:100B60000895C9D1D2D182E08093DF018CE089BDA4
:100B700089B5826089BD09B400FEFDCF8091D8009F
:100B8000982F9F779093D80080688093D8008091A9
:100B9000D70081608093D7008091D8008F7D8093AB
:100BA000D8008091E0008E7F8093E0008091D80093
:100BB00080648093D8008091DD0081608093DD00A7
:100BC0008091D8008F7E8093D8008091DD00846072
:100BD0008093DD008091D7008F7E8093D7006F9A3D
:100BE000779A8091DE0081608093DE008091DE0044
:100BF00084608093DE000895B4DFE0EEF0E0808151
:100C000081608083E8EDF0E080818F77808319BC7C
:100C100080818F7E80831092D601089580E4809336
:100C2000D001E7EDF0E080818F7780839ADFE8EDF7
:100C3000F0E080818061808381E08093D6017894A8
:100C40000895EF920F931F939E2D8093A70080919C
:100C5000A90081608093A9001092AB006295660F95
:100C6000660F607C642B2F70622B6093AA000930A2
:100C7000110510F480E015C00131110510F480E178
:100C800010C00132110510F480E20BC001341105CF
:100C900010F480E306C00138110510F080E501C0B2
:100CA00080E49260982B9093AB008091A9008062C1
:100CB0008093A9008091AC00881F8827881F1F910E
:100CC0000F91EF9008951092F80080E090E041E0DD
:100CD00050E09A01082E02C0220F331F0A94E2F757
:100CE0002093A8001092A8008093A7001092AE0055
:100CF0001092A6002091A6002F7E2093A6001092AD
:100D0000F5002091AB002D7F2093AB002091A9002E
:100D10002E7F2093A900019687309105D1F6089582
:100D20002091A70090E0682F70E09093A700809139
:100D3000AC0087FF0AC04091AA0050E04F7050708D
:100D40004617570711F481E008959F5F973069F7C0
:100D500027702093A70080E0089584E69091AA0070
:100D60009073903129F49091A60090FF05C01FC0A8
:100D70009091A60092FD1BC09091A60091FF02C029
:100D800081E008959091DF01923011F482E008959E
:100D900090919F0095FFE2CF90919F009F7D90934F
:100DA0009F00882311F483E008958150D7CF80E01D
:100DB0000895AF92BF92CF92DF92EF92FF920F937E
:100DC0001F93DF93CF930F92CDB7DEB7182F5B0140
:100DD0006A018091AA008F7C80628093AA00998327
:100DE000BCDF082F9981882341F5E12EF92E22C01E
:100DF0008091A60085FD16C08091A600982F9B7F4C
:100E00009093A6008F778093A600C114D10431F08F
:100E1000F6010995813011F484E010C09EDF88232B
:100E200049F00CC0F70181917F018093AF000894D5
:100E3000A108B108A114B104D9F6802F0F90CF9169
:100E4000DF911F910F91FF90EF90DF90CF90BF90B7
:100E5000AF900895AF92BF92CF92DF92EF92FF9240
:100E60000F931F93DF93CF930F92CDB7DEB7182F59
:100E70005B016A018091AA008F7C80618093AA0047
:100E800099836BDF082F9981882341F5E12EF92E94
:100E900022C08091A60085FD16C08091A600982FE3
:100EA0009E7F9093A6008F778093A600C114D104F3
:100EB00031F0F6010995813011F484E010C04DDF66
:100EC000882349F00CC08091AF00F70181937F0126
:100ED0000894A108B108A114B104D9F6802F0F908D
:100EE000CF91DF911F910F91FF90EF90DF90CF9006
:100EF000BF90AF900895E8EDF0E080818C7F808313
:100F00001092A0001092DE0008951092DA00109264
:100F10009F001092DF0008951F920F920FB60F925C
:100F20000BB60F9211242F933F934F935F936F93C0
:100F30007F938F939F93AF93BF93EF93FF93809192
:100F40009F0081FF15C08091A00081FF11C080919A
:100F50009F008D7F80939F0080919F008E7F809364
:100F60009F008091A0008D7F8093A00089D9F9DD3A
:100F70008091DF0081FF15C08091DE0081FF11C0EC
:100F80008091DF008D7F8093DF0077988091DD0076
:100F900081608093DD0080E051D972D982E0809336
:100FA000DF018091DF0080FF17C08091DE0080FFAD
:100FB00013C08091DF008E7F8093DF008091DE0080
:100FC0008E7F8093DE0065D98091A000826080933F
:100FD000A00083E08093DF018091DF0082FF0EC0DC
:100FE0008091DE0082FF0AC08091DF008B7F8093BA
:100FF000DF0082E060E0F6D843D9B3DDFF91EF91E6
:10100000BF91AF919F918F917F916F915F914F9120
:101010003F912F910F900BBE0F900FBE0F901F901E
:1010200018951F93CF93DF93C7EAD0E0188117700C
:10103000188224DB1883DF91CF911F910895AF921E
:10104000BF92CF92DF92EF92FF920F931F93CF93B5
:10105000DF93EC018B015A011DC0F801E080F180A3
:10106000F701208130E0C701820F931FF8019183BF
:101070008083A601421B530B59834883F5010995D0
:10108000823041F0813061F4F801E082F182D9824E
:10109000C88206C0C880D980C114D104F1F682E0AC
:1010A000DF91CF911F910F91FF90EF90DF90CF9044
:1010B000BF90AF900895CF92DF92EF92FF920F937F
:1010C0001F93DF93CF93CDB7DEB729970FB6F89470
:1010D000DEBF0FBECDBF8B017A01690190E890930E
:1010E000D70196E09093D80190E001979260909399
:1010F000DA018093D9011092DC011092DB0189E0C2
:1011000090E09093DE018093DD011092A700CE0164
:1011100001961CDC8823B9F48B819C81F8019183B2
:101120008083C816D90610F485E00DC09093DE01C7
:101130008093DD01C7010ADC882329F4F70191813E
:10114000923009F086E029960FB6F894DEBF0FBE04
:10115000CDBFCF91DF911F910F91FF90EF90DF9066
:10116000CF900895FC018181843041F485818130E4
:1011700029F48681833011F48781811182E00895FA
:101180000895FC01CB012091DF012C30E1F4248192
:101190002223C9F020812093A7002091A60025FDDD
:1011A00002C080E0089564E070E040E050E052DE6C
:1011B0008091A600982F9E7F9093A6008F778093B2
:1011C000A60081E0089581E00895FC01CB01209103
:1011D000DF012C30C9F424812223B1F02281209335
:1011E000A7002091A60064E070E040E050E0E1DD5F
:1011F000882359F49091A600292F2B7F2093A600D5
:101200009F779093A600089581E008957F928F9232
:101210009F92AF92BF92CF92DF92EF92FF920F9385
:101220001F93DF93CF9300D000D00F92CDB7DEB7DE
:101230006C017A8369835C834B830496FC0185E0AF
:10124000DF011D928A95E9F7EB81FC818181823073
:1012500011F081E05EC08E010D5F1F4F5E010894AA
:10126000A11CB11CC501B80142EB58E0E8DE88239F
:1012700011F082E04EC030E0F02E912E8A2C7B2CB3
:10128000882D972D6F2D792D4CE959E03D83D7DEC0
:101290003D81882311F083E03CC0AB80BC80F50128
:1012A00022810481158127FF17C0D6018C911196E8
:1012B0009C911197911194E062E040E1E92E3D8309
:1012C000C0DCF50184819581D60116969C938E939E
:1012D00015973D81316014C0F6018281938191118F
:1012E00094E062E040E2E92E3D83ABDCD501149648
:1012F0008D919C911597F601908787833D8132608F
:10130000333009F0BDCF81E0D60114968C93149749
:1013100080E00F900F900F900F900F90CF91DF9182
:101320001F910F91FF90EF90DF90CF90BF90AF9003
:101330009F908F907F900895FC018181853049F4C2
:1013400083818370823049F48281EADC882329F426
:101350000895843011F481E0089582E00895DF93C8
:10136000CF93CDB7DEB7FE01359661917191809133
:10137000E2019091E301DC0113962C911397286010
:1013800013962C93AF0181D0E091E201F091E3013B
:101390002381277F2383CF91DF910895EF92FF92DE
:1013A0000F931F93CF93DF938C01E091E201F091B3
:1013B000E301838181FF23C0C0E0D0E00EC06091D3
:1013C000E2017091E301DB011896ED91FC91199710
:1013D0000995009711F0CFEFDFEFF80181918F01B0
:1013E000882369F76091E2017091E301DB011896AF
:1013F000ED91FC9119978AE00995009711F0CFEFD4
:10140000DFEFCE01DF91CF911F910F91FF90EF9011
:101410000895EF92FF920F931F93CF93DF938C0168
:10142000E091E201F091E301838181FF24C0C0E0FB
:10143000D0E010C06091E2017091E301DB011896E9
:10144000ED91FC9119970995009711F0CFEFDFEF1F
:101450000F5F1F4FF8018491882361F76091E201CB
:101460007091E301DB011896ED91FC9119978AE0E8
:101470000995009711F0CFEFDFEFCE01DF91CF910B
:101480001F910F91FF90EF9008953F924F925F92BE
:101490006F927F928F929F92AF92BF92CF92DF9284
:1014A000EF92FF920F931F93DF93CF93CDB7DEB7E9
:1014B0002C970FB6F894DEBF0FBECDBF6C012B0189
:1014C0008A01FC0117821682838181FD03C02FEF00
:1014D0003FEFB4C14E010894811C911C6FE3362E7E
:1014E000F6019381F20193FD859193FF81912F0184
:1014F000882309F4A0C1853239F493FD859193FFC7
:1015000081912F01853221F490E0B601C6D1E8CF58
:10151000EE24FF2420E02032B0F48B3269F08C32CC
:1015200028F4803251F0833271F40BC08D3239F0DF
:10153000803349F421602CC02260246029C02860D7
:1015400027C0206125C027FD2CC0382F30533A30EA
:1015500098F426FF08C08E2D880FE82EEE0CEE0CB6
:10156000E80EE30E15C08F2D880FF82EFF0CFF0C30
:10157000F80EF30E20620CC08E3221F426FD5BC102
:10158000206406C08C3611F4206802C0883649F405
:10159000F20193FD859193FF81912F01882309F03A
:1015A000BACF982F9554933018F09052933020F47E
:1015B0000C5F1F4F39820DC0833631F0833771F0D5
:1015C000833509F054C01DC0F801808189830E5F06
:1015D0001F4F540151E0652E712C11C0F801A080FD
:1015E000B18026FD03C06FEF7FEF02C06E2D70E06B
:1015F0000E5F1F4FC5012C8745D13C012C852F77ED
:1016000012C0F801A080B18026FD03C06FEF7FEF0C
:1016100002C06E2D70E00E5F1F4FC5012C8727D1D1
:101620003C012C85206823FF08C01DC080E290E0AB
:10163000B6012C8732D1FA942C858F2D90E0681654
:101640007906A0F310C0F50127FD859127FF819150
:101650005F0190E0B6012C8720D12C85F110FA941F
:101660000894610871086114710469F7E1C0843657
:1016700011F0893641F527FF08C0F80160817181BA
:10168000828193810C5F1F4F09C0F80160817181D5
:10169000882777FD8095982F0E5F1F4F4FE6B42E59
:1016A000B22297FF09C090958095709561957F4F04
:1016B0008F4F9F4FF0E8BF2AA4012AE030E019D1F4
:1016C000782E781842C0853731F43FEEB32EB2221F
:1016D0002AE030E023C099EFB92EB2228F3661F0B4
:1016E000803720F4883509F0A6C012C0803739F061
:1016F000883709F0A0C005C028E030E00FC020E125
:10170000B22AB4FE02C084E0B82A20E130E006C06C
:10171000B4FE02C0E6E0BE2A20E132E0B7FE08C017
:10172000F80160817181828193810C5F1F4F07C036
:10173000F8016081718180E090E00E5F1F4FA4018D
:10174000D8D0782E7818FFE7BF22B6FE0BC02EEF58
:10175000B2227E1438F4B4FE07C0B2FC05C08FEE8E
:10176000B82202C0A72C01C0AE2C8B2DB4FE0DC038
:10177000FE01E70DF11D9081903319F4E9EEBE22D0
:1017800007C0A394B2FE04C002C0867809F0A394F7
:101790006B2CB3FC13C0B0FE0EC0AF1410F0E72CDE
:1017A0000AC0E72CEF0CEA18AF2C05C080E290E0ED
:1017B000B60173D0A394AF14C8F304C0AF1410F4EF
:1017C000FA1801C0FF2464FE0EC080E390E0B60169
:1017D00064D062FE1BC061FC03C088E790E00EC0CD
:1017E00088E590E00BC0862D867881F061FE02C00E
:1017F0008BE201C080E2B7FC8DE290E0B6014DD0F3
:1018000005C080E390E0B60148D0EA947E14C8F3A6
:101810007A94F401E70DF11D808190E0B6013DD08E
:101820007720B1F705C080E290E0B60136D0FA9497
:10183000FF20C9F755CEF60126813781C9012C96C4
:101840000FB6F894DEBF0FBECDBFCF91DF911F91D1
:101850000F91FF90EF90DF90CF90BF90AF909F904F
:101860008F907F906F905F904F903F900895FC0114
:101870000590615070400110D8F7809590958E0FBB
:101880009F1F0895FC016150704001900110D8F72E
:10189000809590958E0F9F1F08950F931F93CF9360
:1018A000DF938C01EB018B8181FF1BC082FF0DC098
:1018B0002E813F818C819D812817390764F4E8814E
:1018C000F9810193F983E88306C0E885F985802FC3
:1018D0000995009731F48E819F8101969F838E83B5
:1018E00002C00FEF1FEFC801DF91CF911F910F9141
:1018F0000895FA01AA27283051F1203181F1E894A6
:101900006F936E7F6E5F7F4F8F4F9F4FAF4FB1E0F2
:101910003ED0B4E03CD0670F781F891F9A1FA11DED
:10192000680F791F8A1F911DA11D6A0F711D811DEE
:10193000911DA11D20D009F468943F912AE0269FB3
:1019400011243019305D3193DEF6CF010895462F12
:101950004770405D4193B3E00FD0C9F7F6CF462FF3
:101960004F70405D4A3318F0495D31FD405241935C
:1019700002D0A9F7EACFB4E0A69597958795779519
:101980006795BA95C9F700976105710508959B01A0
:10199000AC010A2E06945795479537952795BA9529
:1019A000C9F7620F731F841F951FA01D0895F89437
:0219B000FFCF67
:1019B2004572726F722052657472696576696E67DC
:1019C20020436F6E66696775726174696F6E204439
:1019D200657363726970746F722E0D004174746165
:1019E2006368656420446576696365204E6F742080
:1019F200612056616C6964204D49444920436C6101
:101A02007373204465766963652E0D004572726FAB
:101A1200722053657474696E6720446576696365E4
:101A220020436F6E66696775726174696F6E2E0D01
:101A3200004D4944492044657669636520456E75C9
:101A42006D6572617465642E0D004F6E004F66669F
:101A5200000100020000000000000000000300007E
:101A62000000A102AA02000080060001000012008C
:101A720000050100000000008006000100000800CF
:021A8200400022
:00000001FF
